:020000040800F2
:100000006006002099010008590400085104000806
:100010005504000855020008D10C0008000000003B
:10002000000000000000000000000000D1040008F3
:1000300059020008000000005D04000801060008E5
:10004000B3010008B3010008B3010008B3010008C0
:10005000B3010008B3010008B3010008B3010008B0
:10006000B3010008B3010008B3010008B3010008A0
:10007000B3010008B3010008B3010008B301000890
:10008000B3010008B3010008B3010008B301000880
:10009000B3010008B3010008B3010008B301000870
:1000A000B3010008B3010008B3010008B301000860
:1000B000B3010008B3010008B3010008B301000850
:1000C000B3010008B3010008B3010008B301000840
:1000D000B3010008B3010008B3010008B301000830
:1000E000B3010008B3010008B301000800F002F8F2
:1000F00000F042F814A696E8000CB244B344DA4586
:1001000001D100F039F8BAE80F000FA696E83000E8
:10011000A5EB040504EB0607AAEB0704A7F101070A
:100120004FEA15154FEA3414A4F10104AC4201D38F
:1001300000F022F813F0010F18BFFB1A43F001037F
:1001400000F001F8DBE71847300D0000400D00001B
:10015000704700000023002400250026103A28BF25
:1001600078C1FBD8520728BF30C148BF0B60704729
:100170001FB51FBD10B510BD00F031F81146FFF7D7
:10018000F7FF00F0A7FD00F04FF803B4FFF7F2FF10
:1001900003BC00F057F800000948804709480047B1
:1001A000FEE7FEE7FEE7FEE7FEE7FEE7FEE7FEE727
:1001B000FEE7FEE704480549054A064B7047000084
:1001C00005060008ED000008600000206006002021
:1001D000600200206002002070477047704775463B
:1001E00000F02CF8AE4605006946534620F00700A3
:1001F000854618B020B5FFF7DDFFBDE820404FF081
:1002000000064FF000074FF000084FF0000BAC461F
:10021000ACE8C009ACE8C009ACE8C009ACE8C0096A
:1002200021F007018D46704710B50446AFF30080FA
:100230002046BDE81040FFF7A8BF00000048704707
:100240000000002001491820ABBEFEE72600020096
:1002500070470000FFE7FEE77047000080B54FF0F1
:100260008040002100F088FCFFE74FF0804000F064
:1002700013FAB0F57A7F01DAFFE7F6E780BD0000F8
:1002800080B582B00190FFE7019830B1FFE7FFF73A
:10029000E5FF019801380190F6E702B080BD00004B
:1002A00088B007900691002005900490039002907A
:1002B000019000900698C07800F00F000590069815
:1002C000C078C006002806D5FFE706988178059813
:1002D00008430590FFE70698007800284BD0FFE719
:1002E00007980068019000200390FFE70398072813
:1002F0003DD8FFE7039901208840029006980088C6
:100300000299084004900498029988422AD1FFE794
:1003100003988000029002990F2088400090009975
:100320000198884301900598029900FA01F101981B
:10033000084301900698C078282806D1FFE7039962
:1003400001208840079948610BE00698C07848284A
:1003500006D1FFE703990120884007990861FFE76C
:10036000FFE7FFE7FFE7039801300390BEE701983E
:1003700007990860FFE706980088B0F5807F50DB9A
:10038000FFE707984068019000200390FFE703987B
:10039000072842D8FFE7039800F1080101208840B0
:1003A00002900698008802990840049004980299E7
:1003B00088422DD1FFE703988000029002990F2018
:1003C000884000900099019888430190059802990F
:1003D00000FA01F10198084301900698C078282896
:1003E00008D1FFE7039800F1080101208840079930
:1003F0004861FFE70698C078482808D1FFE70398CE
:1004000000F108010120884007990861FFE7FFE734
:10041000FFE7039801300390B9E701980799486016
:10042000FFE708B07047000082B00190ADF80210FD
:10043000BDF802000199486102B0704782B0019096
:10044000ADF80210BDF802000199086102B07047D2
:10045000FFE7FEE7FFE7FEE7704700007047000098
:1004600082B001908DF803109DF8030048B1FFE7BA
:10047000019A41F21C01C4F20201086810430860AD
:1004800008E0019A41F21C01C4F20201086890439D
:100490000860FFE702B0704782B001908DF803104A
:1004A0009DF8030048B1FFE7019A41F21801C4F238
:1004B000020108681043086008E0019A41F218013F
:1004C000C4F20201086890430860FFE702B0704779
:1004D0007047000080B500F001F880BD84B00020B6
:1004E0000390029041F20001C4F20201086840F456
:1004F00080300860FFE741F20000C4F202000068AB
:1005000000F400300290039801300390FFE7029955
:100510000020019039B9FFE70398B0F5A06018BF3B
:1005200001200190FFE70198C0070028E3D1FFE711
:1005300041F20000C4F2020000688003002803D5E5
:10054000FFE70120029002E000200290FFE70298FE
:10055000012851D1FFE742F20001C4F2020108680C
:1005600040F010000860086820F007000860086884
:1005700040F00200086041F20401C4F2020100915F
:100580000868086008680860086840F480600860CF
:10059000086820F47C100860086840F4E8100860DF
:1005A00041F20001C4F20201086840F08070086066
:1005B000FFE741F20000C4F2020000688001002859
:1005C00001D4FFE7F5E741F20401C4F20201086833
:1005D00020F003000860086840F002000860FFE7B0
:1005E00041F20400C4F20200006800F00C00082888
:1005F00001D0FFE7F4E700E0FFE704B07047000038
:100600007047000080B541F20002C4F20202106897
:1006100040F00100106041F20401C4F202010868D8
:100620000023CFF6FF031840086010684FF6FF73F1
:10063000CFF6F66318401060106820F48020106038
:10064000086820F4FE00086041F20801C4F20201CB
:100650004FF41F000860FFF73DFF4EF60851CEF241
:1006600000014FF00060086080BD000082B0019082
:100670008DF803109DF8030030B1FFE70199088859
:1006800040F00100088005E00199088820F0010091
:100690000880FFE702B0704781B000900098808C1E
:1006A00001B0704784B0039002910020ADF80600BD
:1006B000ADF80400ADF802000399088C20F00100A9
:1006C00008840398008CADF8040003988088ADF886
:1006D00002000398008BADF80600BDF8060020F07C
:1006E0007000ADF80600BDF8060020F00300ADF87C
:1006F000060002980188BDF806000843ADF8060020
:10070000BDF8040020F00200ADF804000298018951
:10071000BDF804000843ADF8040002984188BDF814
:1007200004000843ADF80400039842F60041C4F207
:100730000101884220D0FFE7039843F20041C4F250
:100740000101884218D0FFE7039844F20001C4F287
:100750000101884210D0FFE7039844F20041C4F23F
:100760000101884208D0FFE7039844F60001C4F273
:100770000101884235D1FFE7BDF8040020F00800F0
:10078000ADF8040002984189BDF804000843ADF8B3
:100790000400BDF8040020F00400ADF80400029845
:1007A0008188BDF804000843ADF80400BDF80200DC
:1007B00020F48070ADF80200BDF8020020F4007053
:1007C000ADF8020002988189BDF802000843ADF837
:1007D00002000298C189BDF802000843ADF802008A
:1007E000FFE7BDF8020003998880BDF80600039971
:1007F00008830298C08803998886BDF8040003998D
:10080000088404B07047000084B003900291002077
:10081000ADF80600ADF80400ADF802000399088CAD
:1008200020F0100008840398008CADF804000398B1
:100830008088ADF802000398008BADF80600BDF883
:10084000060020F4E040ADF80600BDF8060020F4F4
:100850004070ADF8060002980188BDF8060040EA35
:100860000120ADF80600BDF8040020F02000ADF82E
:10087000040002980189BDF8040040EA0110ADF8B7
:10088000040002984188BDF8040040EA0110ADF868
:100890000400039842F60041C4F20101884208D0E6
:1008A000FFE7039843F20041C4F20101884239D1C5
:1008B000FFE7BDF8040020F08000ADF804000298C6
:1008C0004189BDF8040040EA0110ADF80400BDF80C
:1008D000040020F04000ADF8040002988188BDF8C3
:1008E000040040EA0110ADF80400BDF8020020F455
:1008F0008060ADF80200BDF8020020F40060ADF8A1
:10090000020002988189BDF8020040EA8100ADF83A
:1009100002000298C189BDF8020040EA8100ADF8EA
:100920000200FFE7BDF8020003998880BDF80600C9
:10093000039908830298C08803990887BDF80400CA
:100940000399088404B0704784B00390029100209A
:10095000ADF80600ADF80400ADF802000399088C6C
:1009600020F4807008840398008CADF8040003988C
:100970008088ADF802000398808BADF80600BDF8C2
:10098000060020F07000ADF80600BDF8060020F06B
:100990000300ADF8060002980188BDF80600084380
:1009A000ADF80600BDF8040020F40070ADF80400B6
:1009B00002980189BDF8040040EA0120ADF8040066
:1009C00002984188BDF8040040EA0120ADF8040017
:1009D000039842F60041C4F20101884208D0FFE7C3
:1009E000039843F20041C4F20101884239D1FFE784
:1009F000BDF8040020F40060ADF8040002984189BD
:100A0000BDF8040040EA0120ADF80400BDF8040080
:100A100020F48060ADF8040002988188BDF80400DD
:100A200040EA0120ADF80400BDF8020020F4805037
:100A3000ADF80200BDF8020020F40050ADF802004D
:100A400002988189BDF8020040EA0110ADF8020069
:100A50000298C189BDF8020040EA0110ADF8020019
:100A6000FFE7BDF8020003998880BDF806000399EE
:100A700088830298C08803998887BDF80400039989
:100A8000088404B07047000084B0039002910020F5
:100A9000ADF80600ADF80400ADF802000399088C2B
:100AA00020F4805008840398008CADF8040003986B
:100AB0008088ADF802000398808BADF80600BDF881
:100AC000060020F4E040ADF80600BDF8060020F472
:100AD0004070ADF8060002980188BDF8060040EAB3
:100AE0000120ADF80600BDF8040020F40050ADF878
:100AF000040002980189BDF8040040EA0130ADF815
:100B0000040002984188BDF8040040EA0130ADF8C5
:100B10000400039842F60041C4F20101884208D063
:100B2000FFE7039843F20041C4F2010188420FD16C
:100B3000FFE7BDF8020020F48040ADF80200029803
:100B40008189BDF8020040EA8110ADF80200FFE79C
:100B5000BDF8020003998880BDF8060003998883D8
:100B60000298C0880399A1F84000BDF804000399D9
:100B7000088404B07047000082B00190ADF8021004
:100B8000BDF802000199888402B0704783B00290DA
:100B900001910020ADF8020002980088ADF8020033
:100BA000029842F60041C4F20101884225D0FFE7D5
:100BB000029843F20041C4F2010188421DD0FFE7D0
:100BC0000298B0F1804F18D0FFE7029840F2004140
:100BD000C4F20001884210D0FFE7029840F60001FD
:100BE000C4F20001884208D0FFE7029840F60041B5
:100BF000C4F2000188420ED1FFE7BDF8020020F0E8
:100C00007000ADF8020001984188BDF80200084369
:100C1000ADF80200FFE7029841F20001C4F20001C2
:100C2000884216D0FFE7029841F20041C4F2000169
:100C300088420ED0FFE7BDF8020020F44070ADF806
:100C400002000198C188BDF802000843ADF8020017
:100C5000FFE7BDF802000299088001988088029998
:100C600088850198008802990885029842F600411B
:100C7000C4F20101884220D0FFE7029843F200410C
:100C8000C4F20101884218D0FFE7029844F2000143
:100C9000C4F20101884210D0FFE7029844F20041FB
:100CA000C4F20101884208D0FFE7029844F600012F
:100CB000C4F20101884205D1FFE70198007A029948
:100CC0000886FFE702990120888203B07047000080
:100CD000FFE7FEE780B598B000200B901790012148
:100CE00009910846FFF7BCFB099910200490FFF713
:100CF000D3FB099904200C90FFF7CEFB04988DF8E4
:100D000051004FF40050ADF84E00032006908DF8CE
:100D1000500041F20000C4F2010007900DF14E01B5
:100D20000891FFF7BDFA069A07980899099B4FF0BA
:100D3000180CCDF814C08DF851C0ADF84E308DF8B8
:100D40005020FFF7ADFA059B069A079808998DF891
:100D500051300223ADF84E308DF85020FFF7A0FA45
:100D6000DDF814C0069A079808990C9B8DF851C0BD
:100D7000ADF84E308DF85020FFF792FA059B069A99
:100D8000079808998DF851300823ADF84E308DF84A
:100D90005020FFF785FA0B98ADF854006320ADF8AA
:100DA00056004720ADF852004FF080400D900DF1F5
:100DB0005201FFF7EBFE09990D98FFF757FC0B9ACC
:100DC0000C990D9860230A93ADF83E30ADF846209B
:100DD0000A22ADF84420ADF840100DF13E010E910D
:100DE000FFF760FCDDF828C00B9B0C9A0D980E995C
:100DF000ADF83EC0ADF846301923ADF84430ADF83B
:100E00004020FFF701FDDDF828C00B9B0C9A0D98E0
:100E10000E99ADF83EC0ADF846302823ADF8443009
:100E2000ADF84020FFF790FDDDF828C00B9B0C9A31
:100E30000D980E99ADF83EC0ADF846305023ADF890
:100E40004430ADF84020FFF71FFEFFE741F20000FD
:100E5000C4F2010001904FF400510291FFF7EEFA45
:100E600064200390FFF70CFA01980299FFF7DCFA6F
:100E70000398FFF705FAE9E7880E00080000002054
:080E80006006000054010008A7
:040000050800019955
:00000001FF
