:020000040800F2
:100000009806002099010008C90B0008C10B0008E0
:10001000C50B00089D020008D9130008000000006D
:10002000000000000000000000000000B50D000806
:100030009509000800000000CD0B0008E50E00083F
:10004000B3010008B3010008B3010008B3010008C0
:10005000B3010008B3010008B3010008B3010008B0
:10006000B3010008B3010008B3010008B3010008A0
:10007000B3010008B3010008B3010008B301000890
:10008000B3010008B3010008B3010008B301000880
:10009000B3010008B3010008B3010008B301000870
:1000A000B3010008B3010008B3010008B301000860
:1000B000B3010008B3010008B3010008B301000850
:1000C000B3010008B3010008B3010008B301000840
:1000D000B3010008B3010008B3010008B301000830
:1000E000B3010008B3010008B301000800F002F8F2
:1000F00000F042F814A696E8000CB244B344DA4586
:1001000001D100F039F8BAE80F000FA696E83000E8
:10011000A5EB040504EB0607AAEB0704A7F101070A
:100120004FEA15154FEA3414A4F10104AC4201D38F
:1001300000F022F813F0010F18BFFB1A43F001037F
:1001400000F001F8DBE7184718130000281300003F
:10015000704700000023002400250026103A28BF25
:1001600078C1FBD8520728BF30C148BF0B60704729
:100170001FB51FBD10B510BD00F055F81146FFF7B3
:10018000F7FF01F02BF900F073F803B4FFF7F2FF6B
:1001900003BC00F07BF8000009488047094800478D
:1001A000FEE7FEE7FEE7FEE7FEE7FEE7FEE7FEE727
:1001B000FEE7FEE704480549054A064B7047000084
:1001C000E90E0008ED0000089800002098060020C5
:1001D000980200209802002040EA0103024630B550
:1001E0009B0710D14FF0013400E008C208C91D1B65
:1001F0009D4315EAC41FF8D013F0FF0102F8011B5C
:100200000DD01B0AF8E711F8013B002B02F8013B67
:1002100005D011F8013B002B02F8013BF3D130BDB2
:10022000704770477047754600F02CF8AE460500E1
:100230006946534620F00700854618B020B5FFF701
:10024000B9FFBDE820404FF000064FF000074FF027
:1002500000084FF0000BAC46ACE8C009ACE8C009A0
:10026000ACE8C009ACE8C00921F007018D46704731
:1002700010B50446AFF300802046BDE81040FFF7FC
:1002800084BF00000048704700000020014918208A
:10029000ABBEFEE72600020070470000FFE7FEE766
:1002A00080B584B040F60040C4F2010001904FF4E4
:1002B0008051029100F070FC142000F07FFB019847
:1002C000029900F073FC4FF08040002100F07AFEAC
:1002D000FFE74FF0804000F06FFE09280CDCFFE7DD
:1002E00040F60040C4F201004FF4805100F03AFCA7
:1002F00008B1FFE700E0ECE74FF0804000F05CFE63
:10030000ADF80E00BDF80E000A2802DBFFE7FFE79C
:10031000FEE74FF08040002100F054FEFFE74FF071
:10032000804000F049FE2C280CDCFFE740F600403E
:10033000C4F201004FF4805100F014FC08B9FFE74B
:1003400000E0ECE74FF0804000F036FEADF80E0024
:10035000BDF80E002C2805DCFFE7BDF80E000528CF
:1003600002DCFFE7FFE7FEE74FF08040002100F0EE
:1003700029FEFFE74FF0804000F01EFE59280CDCFC
:10038000FFE740F60040C4F201004FF4805100F056
:10039000E9FB08B1FFE700E0ECE74FF0804000F038
:1003A0000BFEADF80E00BDF80E00592805DCFFE786
:1003B000BDF80E00462802DCFFE7FFE7FEE74FF03E
:1003C0008040002100F0FEFDFFE74FF0804000F08C
:1003D000F3FD5E280CDCFFE740F60040C4F20100AC
:1003E0004FF4805100F0BEFB08B9FFE700E0ECE7F6
:1003F0004FF0804000F0E0FDADF80E00BDF80E00BB
:100400005E2805DCFFE7BDF80E004B2802DCFFE7A5
:10041000FFE7FEE704B080BD80B586B000208DF810
:100420001200FFE79DF81200072875DCFFE74FF088
:100430008040002100F0C6FDFFE74FF0804000F053
:10044000BBFD40280CDCFFE740F60040C4F2010091
:100450004FF4805100F086FB08B1FFE700E0ECE7C5
:100460004FF0804000F0A8FDADF80E00BDF80E0082
:10047000402805DCFFE7BDF80E002D2802DCFFE771
:10048000FFE7FEE74FF08040002100F09BFDFFE713
:100490004FF0804000F090FD4F280CDCFFE740F665
:1004A0000040C4F201004FF4805100F05BFB08B93A
:1004B000FFE700E0ECE74FF0804000F07DFDADF895
:1004C0000E00BDF80E004F2805DCFFE7BDF80E005A
:1004D0000A2802DCFFE7FFE7FEE79DF81300400073
:1004E0008DF81300BDF80E002E2807DBFFE79DF8FE
:1004F000130040F001008DF8130006E09DF8130092
:1005000000F0FE008DF81300FFE7FFE79DF81200F2
:1005100001308DF8120085E700208DF81200FFE70A
:100520009DF81200072875DCFFE74FF0804000219E
:1005300000F048FDFFE74FF0804000F03DFD40280F
:100540000CDCFFE740F60040C4F201004FF480519C
:1005500000F008FB08B1FFE700E0ECE74FF0804057
:1005600000F02AFDADF80C00BDF80C00402805DCB9
:10057000FFE7BDF80C002D2802DCFFE7FFE7FEE7F0
:100580004FF08040002100F01DFDFFE74FF080405C
:1005900000F012FD4F280CDCFFE740F60040C4F2EB
:1005A00001004FF4805100F0DDFA08B9FFE700E0E8
:1005B000ECE74FF0804000F0FFFCADF80C00BDF818
:1005C0000C004F2805DCFFE7BDF80C000A2802DC10
:1005D000FFE7FFE7FEE79DF8140040008DF81400E8
:1005E000BDF80C002E2807DBFFE79DF8140040F053
:1005F00001008DF8140006E09DF8140000F0FE00E4
:100600008DF81400FFE7FFE79DF8120001308DF828
:10061000120085E700208DF81200FFE79DF8120018
:10062000072875DCFFE74FF08040002100F0CAFC8E
:10063000FFE74FF0804000F0BFFC40280CDCFFE7F4
:1006400040F60040C4F201004FF4805100F08AFAF5
:1006500008B1FFE700E0ECE74FF0804000F0ACFCB1
:10066000ADF80A00BDF80A00402805DCFFE7BDF838
:100670000A002D2802DCFFE7FFE7FEE74FF080408D
:10068000002100F09FFCFFE74FF0804000F094FC59
:100690004F280CDCFFE740F60040C4F201004FF4A5
:1006A000805100F05FFA08B9FFE700E0ECE74FF097
:1006B000804000F081FCADF80A00BDF80A004F2828
:1006C00005DCFFE7BDF80A000A2802DCFFE7FFE7C8
:1006D000FEE79DF8150040008DF81500BDF80A00F2
:1006E0002E2807DBFFE79DF8150040F001008DF88C
:1006F000150006E09DF8150000F0FE008DF81500CD
:10070000FFE7FFE79DF8120001308DF8120085E742
:1007100000208DF81200FFE79DF81200072875DC15
:10072000FFE74FF08040002100F04CFCFFE74FF066
:10073000804000F041FC40280CDCFFE740F6004020
:10074000C4F201004FF4805100F00CFA08B1FFE749
:1007500000E0ECE74FF0804000F02EFCADF8080020
:10076000BDF80800402805DCFFE7BDF808002D288B
:1007700002DCFFE7FFE7FEE74FF08040002100F0DA
:1007800021FCFFE74FF0804000F016FC4F280CDC06
:10079000FFE740F60040C4F201004FF4805100F042
:1007A000E1F908B9FFE700E0ECE74FF0804000F026
:1007B00003FCADF80800BDF808004F2805DCFFE792
:1007C000BDF808000A2802DCFFE7FFE7FEE79DF816
:1007D000160040008DF81600BDF808002E2807DB33
:1007E000FFE79DF8160040F001008DF8160006E0C6
:1007F0009DF8160000F0FE008DF81600FFE7FFE7F9
:100800009DF8120001308DF8120085E700208DF868
:100810001200FFE79DF81200072875DCFFE74FF094
:100820008040002100F0CEFBFFE74FF0804000F059
:10083000C3FB40280CDCFFE740F60040C4F2010097
:100840004FF4805100F08EF908B1FFE700E0ECE7CB
:100850004FF0804000F0B0FBADF80600BDF8060098
:10086000402805DCFFE7BDF806002D2802DCFFE785
:10087000FFE7FEE74FF08040002100F0A3FBFFE719
:100880004FF0804000F098FB4F280CDCFFE740F66B
:100890000040C4F201004FF4805100F063F908B940
:1008A000FFE700E0ECE74FF0804000F085FBADF89B
:1008B0000600BDF806004F2805DCFFE7BDF806007E
:1008C0000A2802DCFFE7FFE7FEE79DF8170040007B
:1008D0008DF81700BDF806002E2807DBFFE79DF80E
:1008E000170040F001008DF8170006E09DF8170092
:1008F00000F0FE008DF81700FFE7FFE79DF81200FB
:1009000001308DF8120085E79DF813009DF8143032
:100910009DF815209DF816101844104408448DF8D1
:1009200011009DF811009DF8171088420BD0FFE7C9
:1009300040F26000C2F2000041F24C41C0F60001FA
:10094000FFF74AFCFFE740F26000C2F2000006B089
:1009500080BD000080B584B00820012100F054F96A
:1009600014208DF80F004FF480500290ADF80C0069
:1009700003208DF80E0040F60040C4F20100019003
:1009800003A900F02BF80198029900F00FF904B0C8
:1009900080BD00007047000080B54FF0804000210E
:1009A00000F010FBFFE74FF0804000F005FBB0F5D2
:1009B0007A7F01DAFFE7F6E780BD000080B582B0FC
:1009C0000190FFE7019830B1FFE7FFF7E5FF0198DD
:1009D00001380190F6E702B080BD000088B00790B2
:1009E00006910020059004900390029001900090E1
:1009F0000698C07800F00F0005900698C078C006F1
:100A0000002806D5FFE706988178059808430590E9
:100A1000FFE70698007800284BD0FFE707980068AA
:100A2000019000200390FFE7039807283DD8FFE7D7
:100A30000399012088400290069800880299084096
:100A400004900498029988422AD1FFE70398800015
:100A5000029002990F2088400090009901988843E5
:100A600001900598029900FA01F10198084301905C
:100A70000698C078282806D1FFE70399012088400E
:100A8000079948610BE00698C078482806D1FFE72F
:100A900003990120884007990861FFE7FFE7FFE716
:100AA000FFE7039801300390BEE7019807990860BB
:100AB000FFE706980088B0F5807F50DBFFE70798D6
:100AC0004068019000200390FFE70398072842D870
:100AD000FFE7039800F10801012088400290069882
:100AE00000880299084004900498029988422DD108
:100AF000FFE703988000029002990F208840009041
:100B000000990198884301900598029900FA01F133
:100B10000198084301900698C078282808D1FFE77B
:100B2000039800F108010120884007994861FFE718
:100B30000698C078482808D1FFE7039800F108011B
:100B40000120884007990861FFE7FFE7FFE7039866
:100B500001300390B9E7019807994860FFE708B0B2
:100B60007047000082B00190ADF8021000208DF8AF
:100B7000010001988068BDF80210084204D0FFE728
:100B800001208DF8010003E000208DF80100FFE74F
:100B90009DF8010002B0704782B00190ADF80210DC
:100BA000BDF802000199486102B0704782B001901F
:100BB000ADF80210BDF802000199086102B070475B
:100BC000FFE7FEE7FFE7FEE7704700007047000021
:100BD00082B001908DF803109DF8030048B1FFE743
:100BE000019A41F21C01C4F2020108681043086036
:100BF00008E0019A41F21C01C4F202010868904326
:100C00000860FFE702B0704782B001908DF80310D2
:100C10009DF8030048B1FFE7019A41F21801C4F2C0
:100C2000020108681043086008E0019A41F21801C7
:100C3000C4F20201086890430860FFE702B0704701
:100C400086B005900020049003900290019041F23C
:100C50000400C4F20200006800F00C000490049844
:100C6000009040B1FFE7009804280BD0FFE7009800
:100C700008280ED047E0059941F20020C0F27A0022
:100C8000086047E0059941F20020C0F27A00086050
:100C900040E041F20400C4F20200016801F4701166
:100CA0000391006800F4803002900399022000EB69
:100CB00091400390029848B9FFE7039840F600116D
:100CC000C0F23D014843059908601BE041F2040071
:100CD000C4F2020000688003002809D5FFE70398EA
:100CE00040F60011C0F23D0148430599086008E054
:100CF000039841F20021C0F27A0148430599086047
:100D0000FFE7FFE706E0059941F20020C0F27A0014
:100D10000860FFE741F20400C4F20200016801F03C
:100D2000F0010491049909090491049A41F23C41AB
:100D3000C0F600018A5C0192059B1A68DDF804C0C8
:100D400022FA0CF25A60026802F4E0620492049AF9
:100D5000120A0492049A8A5C0192059B5A68DDF893
:100D600004C022FA0CF29A60026802F46052049203
:100D7000049AD20A0492049A895C0191059A5168F6
:100D8000019BD940D160006800F440400490049871
:100D9000800B0490049941F23840C0F60000405C9A
:100DA00001900599C868019AB0FBF2F0086106B09D
:100DB000704700007047000080B500F001F880BD6A
:100DC00084B000200390029041F20001C4F20201BD
:100DD000086840F480300860FFE741F20000C4F288
:100DE0000200006800F40030029003980130039084
:100DF000FFE702990020019039B9FFE70398B0F5A9
:100E0000A06018BF01200190FFE70198C0070028EB
:100E1000E3D1FFE741F20000C4F202000068800362
:100E2000002803D5FFE70120029002E00020029095
:100E3000FFE70298012851D1FFE742F20001C4F216
:100E40000201086840F010000860086820F0070000
:100E50000860086840F00200086041F20401C4F232
:100E6000020100910868086008680860086840F49A
:100E700080600860086820F47C100860086840F40E
:100E8000E810086041F20001C4F20201086840F075
:100E900080700860FFE741F20000C4F202000068C1
:100EA0008001002801D4FFE7F5E741F20401C4F214
:100EB0000201086820F003000860086840F00200A2
:100EC0000860FFE741F20400C4F20200006800F08D
:100ED0000C00082801D0FFE7F4E700E0FFE704B0CA
:100EE000704700007047000080B541F20002C4F274
:100EF0000202106840F00100106041F20401C4F2E7
:100F0000020108680023CFF6FF031840086010684C
:100F10004FF6FF73CFF6F66318401060106820F4A8
:100F200080201060086820F4FE00086041F208018B
:100F3000C4F202014FF41F000860FFF73DFF4EF6B8
:100F40000851CEF200014FF00060086080BD000043
:100F500080B586B0012102910846FFF739FE0020D6
:100F6000ADF810004FF6FF70ADF812004720ADF855
:100F70000E004FF0804001900DF10E0100F02CF8B2
:100F80000198029900F002F806B080BD82B001908D
:100F90008DF803109DF8030030B1FFE70199088830
:100FA00040F00100088005E00199088820F0010068
:100FB0000880FFE702B0704781B000900098808CF5
:100FC00001B0704782B00190ADF80210BDF8020088
:100FD0000199888402B0704783B00290019100208B
:100FE000ADF8020002980088ADF80200029842F6BF
:100FF0000041C4F20101884225D0FFE7029843F284
:101000000041C4F2010188421DD0FFE70298B0F10F
:10101000804F18D0FFE7029840F20041C4F200016F
:10102000884210D0FFE7029840F60001C4F20001A8
:10103000884208D0FFE7029840F60041C4F2000160
:1010400088420ED1FFE7BDF8020020F07000ADF835
:10105000020001984188BDF802000843ADF8020083
:10106000FFE7029841F20001C4F20001884216D065
:10107000FFE7029841F20041C4F2000188420ED01D
:10108000FFE7BDF8020020F44070ADF802000198BF
:10109000C188BDF802000843ADF80200FFE7BDF8C3
:1010A0000200029908800198808802998885019839
:1010B000008802990885029842F60041C4F20101B5
:1010C000884220D0FFE7029843F20041C4F20101B8
:1010D000884218D0FFE7029844F20001C4F20101EF
:1010E000884210D0FFE7029844F20041C4F20101A7
:1010F000884208D0FFE7029844F60001C4F20101DB
:10110000884205D1FFE70198007A02990886FFE737
:1011100002990120888203B07047000080B58AB030
:101120004FF4802001210491FFF752FD049908201B
:10113000FFF76AFD18208DF827004FF48060ADF8A6
:101140002400032000908DF8260040F60040C4F2F1
:101150000100019009A90291FFF740FC009A019853
:10116000029904238DF827304FF40063ADF8243042
:101170008DF82620FFF732FC4FF416500590002022
:10118000ADF81800ADF81A00ADF81C000C21ADF850
:101190001E10ADF8200044F60000C4F200000390D9
:1011A00005A900F05FF80398049900F023F80AB04D
:1011B00080BD000080B582B00190FFE70198007803
:1011C000B0B1FFE70198411C0191017844F600009D
:1011D000C4F2000000F0F4F8FFE744F60000C4F2A7
:1011E0000000802100F01CF808B9FFE7F5E7E5E70B
:1011F00002B080BD82B001908DF803109DF803000D
:1012000030B1FFE70199888940F40050888105E0FA
:101210000199888920F400508881FFE702B0704767
:1012200082B00190ADF8021000208DF80100BDF8E9
:101230000200B0F5007F01D1FFE7FFE701980088C9
:10124000BDF802100840000420B1FFE701208DF82E
:10125000010003E000208DF80100FFE79DF8010088
:1012600002B0704780B58CB00B900A9100200990B5
:1012700008900790069005900A98808908B1FFE7CA
:10128000FFE70B9805900B98008A099009984CF697
:10129000FF71084009900A98C1880998084309908D
:1012A00009980B9908820B988089099009984EF645
:1012B000F311084009900A9988880A8910434989DE
:1012C000014309980843099009980B9988810B9864
:1012D000808A099009984FF6FF41084009900A98C2
:1012E000818909980843099009980B998882684672
:1012F000FFF7A6FC059843F60001C4F201018842FD
:1013000003D1FFE70398089002E002980890FFE7F6
:101310000B988089000400280AD5FFE70898192156
:1013200048430A9909684900B0FBF1F0079009E0C9
:101330000898192148430A9909688900B0FBF1F01F
:101340000790FFE7079848F21F51C5F2EB11A0FB89
:1013500001016FF00F0000EA51000990079A099807
:101360000009642100FB112006900B98808900047D
:10137000002810D5FFE70699322000EBC10048F2A3
:101380001F51C5F2EB11A0FB0110C0F342110998E7
:10139000084309900FE00699322000EB011048F253
:1013A0001F51C5F2EB11A0FB0110C0F343110998C6
:1013B00008430990FFE709980B9908810CB080BD9C
:1013C00082B00190ADF80210BDF802006FF35F200B
:1013D0000199888002B07047FFE7FEE780B584B0CE
:1013E00000200390102000900121FFF70DFC0098D1
:1013F0008DF80B004FF40050ADF8080003208DF875
:101400000A0041F20000C4F2010002A9FFF7E6FA67
:10141000FFF79EFDFFF782FEFFF79CFAFFE7FEF75E
:101420003FFFFEF7F9FF01900198FFF7C3FE4FF46D
:10143000FA60FFF7C3FAF2E70204060800000000B2
:101440000102030401020304060708094C6F692026
:101450006475206C6965752044485431310D0A006B
:1014600070140008000000209806000054010008D5
:040000050800019955
:00000001FF
